:100000000C9462000C948A000C948A000C948A0070
:100010000C948A000C948A000C948A000C948A0038
:100020000C948A000C948A000C948A000C948A0028
:100030000C948A000C948A000C948A000C948A0018
:100040000C9421020C948A000C9491020C946B0283
:100050000C948A000C948A000C948A000C948A00F8
:100060000C948A000C948A000000000024002700F1
:100070002A0000000000250028002B0000000000DE
:1000800023002600290004040404040404040202DA
:100090000202020203030303030301020408102007
:1000A0004080010204081020010204081020000012
:1000B0000008000201000003040700000000000027
:1000C0000000F40211241FBECFEFD8E0DEBFCDBF89
:1000D00011E0A0E0B1E0E0E2F8E002C005900D928E
:1000E000AC31B107D9F721E0ACE1B1E001C01D921C
:1000F000AB3CB207E1F710E0C2E6D0E004C02197C4
:10010000FE010E940804C136D107C9F70E943D03D1
:100110000C940E040C940000833081F028F481309C
:1001200099F08230A9F008958730A9F08830C9F09D
:100130008430B1F4809180008F7D03C08091800075
:100140008F7780938000089584B58F7784BD08955C
:1001500084B58F7DFBCF8091B0008F778093B00006
:1001600008958091B0008F7DF9CFCF93DF93282F32
:1001700030E0F901E255FF4F8491F901E656FF4F57
:10018000D491F901EA57FF4FC491CC23A1F081111A
:100190000E948C00EC2FF0E0EE0FFF1FE458FF4FA1
:1001A000A591B491EC91ED2381E090E009F480E019
:1001B000DF91CF91089580E090E0FACF1F93CF9325
:1001C000DF93282F30E0F901E255FF4F8491F901C8
:1001D000E656FF4FD491F901EA57FF4FC491CC2363
:1001E000A9F0162F81110E948C00EC2FF0E0EE0F89
:1001F000FF1FEE58FF4FA591B4918FB7F894EC9183
:10020000111108C0D095DE23DC938FBFDF91CF9111
:100210001F910895DE2BF8CFAF92BF92CF92DF925D
:10022000EF92FF920F931F93CF93DF936C017B01AB
:100230008B01040F151FEB015E01AE18BF08C0173C
:10024000D10759F06991D601ED91FC910190F081AF
:10025000E02DC6010995892B79F7C501DF91CF9172
:100260001F910F91FF90EF90DF90CF90BF90AF90D4
:100270000895FC01538D448D252F30E0842F90E0AC
:10028000821B930B541710F0CF9608950197089591
:10029000FC01918D828D981761F0A28DAE0FBF2F5A
:1002A000B11D5D968C91928D9F5F9F73928F90E0B0
:1002B00008958FEF9FEF0895FC01918D828D98171F
:1002C00031F0828DE80FF11D858D90E008958FEF5C
:1002D0009FEF0895FC01918D228D892F90E0805C25
:1002E0009F4F821B91098F739927089585E291E0B2
:1002F0000E946A0121E0892B09F420E0822F0895F1
:1003000080E090E0892B29F00E94760181110C9405
:1003100000000895FC01A48DA80FB92FB11DA35AA8
:10032000BF4F2C91848D90E001968F739927848F15
:10033000A689B7892C93A089B1898C918370806438
:100340008C93938D848D981306C00288F389E02DD9
:1003500080818F7D80830895EF92FF920F931F938A
:10036000CF93DF93EC0181E0888F9B8D8C8D981368
:100370001AC0E889F989808185FF15C09FB7F89474
:10038000EE89FF896083E889F989808183708064C0
:1003900080839FBF81E090E0DF91CF911F910F910B
:1003A000FF90EF900895F62E0B8D10E00F5F1F4F1A
:1003B0000F731127E02E8C8D8E110CC00FB607FC29
:1003C000FACFE889F989808185FFF5CFCE010E94B7
:1003D0008A01F1CFEB8DEC0FFD2FF11DE35AFF4F9A
:1003E000F0829FB7F8940B8FEA89FB898081806245
:1003F000CFCFCF93DF93EC01888D8823B9F0AA8902
:10040000BB89E889F9898C9185FD03C0808186FDCF
:100410000DC00FB607FCF7CF8C9185FFF2CF80811E
:1004200085FFEDCFCE010E948A01E9CFDF91CF9108
:10043000089542E050E062E171E085E291E00C94C1
:100440000C011F920F920FB60F9211242F933F931E
:100450008F939F93AF93BF9380912101909122013D
:10046000A0912301B09124013091200123E0230FBA
:100470002D3758F50196A11DB11D209320018093C1
:10048000210190932201A0932301B0932401809134
:100490001C0190911D01A0911E01B0911F010196B8
:1004A000A11DB11D80931C0190931D01A0931E01FD
:1004B000B0931F01BF91AF919F918F913F912F9169
:1004C0000F900FBE0F901F90189526E8230F0296ED
:1004D000A11DB11DD2CF1F920F920FB60F92112402
:1004E0002F933F934F935F936F937F938F939F933C
:1004F000AF93BF93EF93FF9385E291E00E948A014F
:10050000FF91EF91BF91AF919F918F917F916F91EB
:100510005F914F913F912F910F900FBE0F901F90C1
:1005200018951F920F920FB60F9211242F938F934D
:100530009F93EF93FF93E0913501F0913601808115
:10054000E0913B01F0913C0182FD1BC090818091C4
:100550003E018F5F8F7320913F01821741F0E09140
:100560003E01F0E0EB5DFE4F958F80933E01FF91E1
:10057000EF919F918F912F910F900FBE0F901F9031
:1005800018958081F4CFCF93DF9390E0FC01E6567D
:10059000FF4F24918A579F4FFC0184918823D1F00B
:1005A00090E0880F991FFC01E859FF4FA591B49185
:1005B000FC01EE58FF4FC591D49161110EC09FB759
:1005C000F8948C91E22FE0958E238C932881E2237E
:1005D000E8839FBFDF91CF9108958FB7F894EC9196
:1005E000E22BEC938FBFF6CFE5E2F1E013821282AB
:1005F00088EE93E0A0E0B0E084839583A683B78380
:1006000084E091E09183808385EC90E095878487F6
:1006100084EC90E09787868780EC90E0918B808BCC
:1006200081EC90E0938B828B82EC90E0958B848BB5
:1006300086EC90E0978B868B118E128E138E148E23
:10064000E2ECF1E087E090E09183808382E090E04B
:10065000938382838CE090E095838483178281E08A
:10066000808761E087E00E94C30261E082E00E942F
:10067000C30260E08CE00C94C302789484B582607D
:1006800084BD84B5816084BD85B5826085BD85B536
:10069000816085BD80916E00816080936E001092B4
:1006A000810080918100826080938100809181002F
:1006B00081608093810080918000816080938000C0
:1006C0008091B10084608093B1008091B00081601E
:1006D0008093B00080917A00846080937A0080914A
:1006E0007A00826080937A0080917A0081608093A2
:1006F0007A0080917A00806880937A001092C1001D
:10070000E0913501F091360182E08083E091310182
:10071000F09132011082E0913301F09134018FECBD
:10072000808310923D01E0913901F0913A0186E019
:100730008083E0913701F09138018081806180836E
:10074000E0913701F0913801808188608083E091E9
:100750003701F0913801808180688083E091370112
:10076000F091380180818F7D8083D1E000E010E03E
:100770008091C6010E94B50021E0892B09F420E098
:100780002093C8018091C6010E94B500C1E0009786
:1007900009F4C0E0C093C8012091C901222369F087
:1007A000892B59F46091CA018091C2010E94DE0038
:1007B0008091CA018D278093CA01C093C9016091BD
:1007C000C8018091C4010E94DE008CE00E94B50047
:1007D00042E050E065E171E0019721F043E050E034
:1007E00068E171E085E291E00E940C010E9419022B
:1007F00061E083E00E94DE000115110509F4B8CF25
:100800000E947601882309F4B3CF0E940000B0CF84
:10081000EE0FFF1F0590F491E02D0994F894FFCF9F
:1008200000000000AC010C013901F9016A01480126
:0C0830005C010D0A004F4E004F464600D0
:00000001FF
